{
  "contractName": "fund_manager",
  "abi": [
    {
      "constant": true,
      "inputs": [
        {
          "name": "",
          "type": "address"
        }
      ],
      "name": "balances",
      "outputs": [
        {
          "name": "",
          "type": "uint256"
        }
      ],
      "payable": false,
      "stateMutability": "view",
      "type": "function"
    },
    {
      "constant": true,
      "inputs": [],
      "name": "owner",
      "outputs": [
        {
          "name": "",
          "type": "address"
        }
      ],
      "payable": false,
      "stateMutability": "view",
      "type": "function"
    },
    {
      "constant": true,
      "inputs": [],
      "name": "partyCount",
      "outputs": [
        {
          "name": "",
          "type": "uint8"
        }
      ],
      "payable": false,
      "stateMutability": "view",
      "type": "function"
    },
    {
      "inputs": [],
      "payable": true,
      "stateMutability": "payable",
      "type": "constructor"
    },
    {
      "anonymous": false,
      "inputs": [
        {
          "indexed": true,
          "name": "accountAddress",
          "type": "address"
        },
        {
          "indexed": false,
          "name": "amount",
          "type": "uint256"
        }
      ],
      "name": "LogDepositMade",
      "type": "event"
    },
    {
      "anonymous": false,
      "inputs": [
        {
          "indexed": true,
          "name": "accountAddress",
          "type": "address"
        },
        {
          "indexed": false,
          "name": "amount",
          "type": "uint256"
        }
      ],
      "name": "LogWithdrawalPerformed",
      "type": "event"
    },
    {
      "constant": false,
      "inputs": [
        {
          "name": "toParty",
          "type": "address"
        }
      ],
      "name": "register",
      "outputs": [
        {
          "name": "",
          "type": "uint256"
        }
      ],
      "payable": false,
      "stateMutability": "nonpayable",
      "type": "function"
    },
    {
      "constant": false,
      "inputs": [
        {
          "name": "depositAmt",
          "type": "uint256"
        }
      ],
      "name": "deposit",
      "outputs": [
        {
          "name": "",
          "type": "uint256"
        }
      ],
      "payable": true,
      "stateMutability": "payable",
      "type": "function"
    },
    {
      "constant": false,
      "inputs": [
        {
          "name": "withdrawAmt",
          "type": "uint256"
        }
      ],
      "name": "withdraw",
      "outputs": [
        {
          "name": "",
          "type": "uint256"
        }
      ],
      "payable": true,
      "stateMutability": "payable",
      "type": "function"
    },
    {
      "constant": true,
      "inputs": [],
      "name": "balance",
      "outputs": [
        {
          "name": "",
          "type": "uint256"
        }
      ],
      "payable": false,
      "stateMutability": "view",
      "type": "function"
    }
  ],
  "bytecode": "0x60806040526802b5e3af16b18800003414610082576040517f08c379a00000000000000000000000000000000000000000000000000000000081526004018080602001828103825260188152602001807f696e697469616c2066756e64696e67207265717569726564000000000000000081525060200191505060405180910390fd5b33600260006101000a81548173ffffffffffffffffffffffffffffffffffffffff021916908373ffffffffffffffffffffffffffffffffffffffff16021790555060008060006101000a81548160ff021916908360ff16021790555061061c806100ed6000396000f3fe6080604052600436106100705760003560e01c80638da5cb5b1161004e5780638da5cb5b146101815780639eb8e725146101d8578063b69ef8a814610209578063b6b55f251461023457610070565b806327e235e3146100755780632e1a7d4d146100da5780634420e4861461011c575b600080fd5b34801561008157600080fd5b506100c46004803603602081101561009857600080fd5b81019080803573ffffffffffffffffffffffffffffffffffffffff169060200190929190505050610276565b6040518082815260200191505060405180910390f35b610106600480360360208110156100f057600080fd5b810190808035906020019092919050505061028e565b6040518082815260200191505060405180910390f35b34801561012857600080fd5b5061016b6004803603602081101561013f57600080fd5b81019080803573ffffffffffffffffffffffffffffffffffffffff1690602001909291905050506103b9565b6040518082815260200191505060405180910390f35b34801561018d57600080fd5b5061019661048d565b604051808273ffffffffffffffffffffffffffffffffffffffff1673ffffffffffffffffffffffffffffffffffffffff16815260200191505060405180910390f35b3480156101e457600080fd5b506101ed6104b3565b604051808260ff1660ff16815260200191505060405180910390f35b34801561021557600080fd5b5061021e6104c5565b6040518082815260200191505060405180910390f35b6102606004803603602081101561024a57600080fd5b810190808035906020019092919050505061050c565b6040518082815260200191505060405180910390f35b60016020528060005260406000206000915090505481565b6000600160003373ffffffffffffffffffffffffffffffffffffffff1673ffffffffffffffffffffffffffffffffffffffff1681526020019081526020016000205482116103725781600160003373ffffffffffffffffffffffffffffffffffffffff1673ffffffffffffffffffffffffffffffffffffffff168152602001908152602001600020600082825403925050819055503373ffffffffffffffffffffffffffffffffffffffff167fd25271fc397ddc80dfdeace3ae950093afd4960e0384b379e877457196b3992e836040518082815260200191505060405180910390a25b600160003373ffffffffffffffffffffffffffffffffffffffff1673ffffffffffffffffffffffffffffffffffffffff168152602001908152602001600020549050919050565b6000600260009054906101000a905050678ac7230489e80000600160008473ffffffffffffffffffffffffffffffffffffffff1673ffffffffffffffffffffffffffffffffffffffff1681526020019081526020016000208190555060008081819054906101000a900460ff168092919060010191906101000a81548160ff021916908360ff16021790555050600160003373ffffffffffffffffffffffffffffffffffffffff1673ffffffffffffffffffffffffffffffffffffffff168152602001908152602001600020549050919050565b600260009054906101000a900473ffffffffffffffffffffffffffffffffffffffff1681565b6000809054906101000a900460ff1681565b6000600160003373ffffffffffffffffffffffffffffffffffffffff1673ffffffffffffffffffffffffffffffffffffffff16815260200190815260200160002054905090565b600081600160003373ffffffffffffffffffffffffffffffffffffffff1673ffffffffffffffffffffffffffffffffffffffff168152602001908152602001600020600082825401925050819055503373ffffffffffffffffffffffffffffffffffffffff167fa8126f7572bb1fdeae5b5aa9ec126438b91f658a07873f009d041ae690f3a193346040518082815260200191505060405180910390a2600160003373ffffffffffffffffffffffffffffffffffffffff1673ffffffffffffffffffffffffffffffffffffffff16815260200190815260200160002054905091905056fea165627a7a7230582051b149802c8ea20fbe105473c9c442f10a1679ba2ebc2b3cd8626f264bfcbf320029",
  "source": "pragma solidity ^0.5.1;\n//using \"now\" validation based on time will be added in the near future\n\n//an interface application will be provided with the mapping to each political parties and their account address\n\n//inorder to support public miners incentive programme will be implemented in the future\n//a theoretical picture will be painted now\ncontract fund_manager {\n    uint8 public partyCount;\n    mapping (address => uint) public balances;\n    address public owner;\n    //admin of the network\n    //balances of all the parties will be made public\n    \n   \n    \n    //we'll be registering two events, amount deposited and withdrawn\n    event LogDepositMade(address indexed accountAddress, uint amount);\n    event LogWithdrawalPerformed(address indexed accountAddress, uint amount);\n    \n    //the owner must create this contract\n    constructor () public payable {\n        //initial funding is to supply parties with initial  credit\n        //initial funding number can change based on the number of parties\n        require(msg.value == 50 ether, \"initial funding required\");\n        owner = msg.sender;\n        partyCount = 0;\n    }\n    \n    \n    //only the owner can assign accounts to parties\n    //return the user balance with the initial credit\n    function register(address toParty) public returns (uint) {\n        if (msg.sender != owner) {\n            \"sender not authorized\";\n            \n        }\n        balances[toParty] = 10 ether;\n        partyCount++;\n        return balances[msg.sender];\n        \n        \n    }\n    \n    \n    function deposit(uint depositAmt) public payable returns (uint) {\n        balances[msg.sender] += depositAmt;\n        emit LogDepositMade(msg.sender, msg.value);\n        return balances[msg.sender];\n    }\n    \n    function withdraw(uint withdrawAmt) public payable returns (uint) {\n        if(withdrawAmt <= balances[msg.sender]) {\n            balances[msg.sender] -= withdrawAmt;\n            emit LogWithdrawalPerformed(msg.sender, withdrawAmt);\n        }\n        return balances[msg.sender];\n    }\n    \n    function balance() public view returns (uint) {\n        return balances[msg.sender];\n    }\n    \n}\n    \n   \n",
  "sourcePath": "/home/darwin0101/Desktop/blockchain test/simple_bank/contracts/fundManager.sol",
  "compiler": {
    "name": "solc",
    "version": "0.5.8+commit.23d335f2.Emscripten.clang"
  },
  "schemaVersion": "3.0.12",
  "updatedAt": "2019-08-17T15:27:56.943Z",
  "devdoc": {
    "methods": {}
  },
  "userdoc": {
    "methods": {}
  }
}